:020000040800F2
:100000007047002029020008230D00085103000852
:10001000210D0008F1060008CD0E000800000000C8
:100020000000000000000000000000003B0200088B
:10003000C10700080000000097020008250D000815
:10004000430200084302000843020008430200087C
:10005000430200084302000843020008430200086C
:10006000430200084302000843020008430200085C
:10007000430200084302000843020008430200084C
:10008000430200084302000843020008430200083C
:10009000430200084302000843020008430200082C
:1000A000430200084302000843020008430200081C
:1000B000430200084302000843020008430200080C
:1000C00043020008430200084302000843020008FC
:1000D00043020008430200084302000843020008EC
:1000E00043020008430200084302000843020008DC
:1000F00043020008430200084302000843020008CC
:1001000043020008430200084302000843020008BB
:1001100043020008430200084302000843020008AB
:10012000430200084302000843020008430200089B
:10013000430200084302000843020008430200088B
:10014000430200084302000843020008430200087B
:10015000430200084302000843020008430200086B
:10016000430200084302000843020008430200085B
:100170004302000843020008430200080000000098
:10018000430200084302000800F002F800F03CF8C7
:100190000AA090E8000C82448344AAF10107DA45E2
:1001A00001D100F031F8AFF2090EBAE80F0013F0F8
:1001B000010F18BFFB1A43F001031847844A0000DF
:1001C000A44A0000103A24BF78C878C1FAD8520770
:1001D00024BF30C830C144BF04680C6070470000C1
:1001E0000023002400250026103A28BF78C1FBD840
:1001F000520728BF30C148BF0B6070471FB504F0DD
:100200007FF91FBD10B510BD00F06DF91146FFF765
:10021000F5FF00F0A2F900F08BF903B4FFF7F2FF4D
:1002200003BC00F093F900000948804709480047E3
:10023000FEE7FEE7FEE7FEE7FEE7FEE7FEE7FEE796
:10024000FEE7FEE704480549054A064B70470000F3
:10025000390D000889010008704100207047002016
:100260007043002070430020EFF3108072B6704797
:1002700080F310887047444A1368012B04D04FF074
:1002800001031360414A1060414A116041484FF038
:10029000805101607047EFF3108272B63A480168EE
:1002A00051B34FF0000101603848016891B1EFF39C
:1002B00009811EF0100F08BF21ED108B21E9F00F0E
:1002C0004FF000041EF0100F08BF012441F8044D48
:1002D000006801602E490968096808C9B1E8F00F93
:1002E000002B18BFB1EC108B81F309884EF0100E73
:1002F000002B18BF2EF0100E82F310884EF0040E63
:10030000704723490860EFF3148222F0040282F35D
:1003100014881E494FF0000008601B494FF001008F
:1003200008601D481D49D0F8002041EA0201016023
:1003300018484FF08051016019480068006880F348
:10034000088861B662B6BFF34F8FBFF36F8F7047F7
:100350001EF0040F0CBFEFF30880EFF3098020E9D3
:10036000F00F40F804ED40F804ED1EF0040F0CBF50
:1003700080F3088880F3098800B501F0E1FA5DF8A0
:1003800004EB4EF0040E7047140100200C01002015
:100390001001002004ED00E020ED00E00000FFFF70
:1003A00008ED00E053EA020C00F069802DE9F04B03
:1003B0004FF00006002B1FBFB3FA83F503FA05F4D4
:1003C00024FA05F65E4012BF1643B2FA82F502FA2D
:1003D00005F4C5F120051EBF22FA05FC44EA0C0411
:1003E000203556EA044C4FEA144418BF641C4FF001
:1003F00000084FF00009904271EB030C39D300293B
:1004000019BFB1FA81F701FA07F6B0FA80F700FADE
:1004100007F6C7F120071EBF20FA07FC46EA0C06C4
:100420002037B6FBF4FCA7EB0507103F07F01F0BC6
:10043000CBF120060CFA0BFB2CFA06F644BFB346B0
:100440000026202FA4BF5E464FF0000B5BEA060C8F
:1004500008BF4FF0010B19EB0B09ABFB027C48EB1B
:100460000608C01B06FB02CC0BFB03CC71EB0C0196
:10047000C1E70B46024641464846BDE8F08B13B53E
:100480004FF000004FF00001AFF30080BDE81C40CA
:1004900070474FF0000200B5134694469646203947
:1004A00022BFA0E80C50A0E80C50B1F12001BFF42D
:1004B000F7AF090728BFA0E80C5048BF0CC05DF893
:1004C00004EB890028BF40F8042B08BF704748BFE1
:1004D00020F8022B11F0804F18BF00F8012B704755
:1004E000704770477047754600F02CF8AE4605001F
:1004F0006946534620F00700854618B020B5FFF73F
:10050000A1FEBDE820404FF000064FF000074FF07D
:1005100000084FF0000B21F00701AC46ACE8C00921
:10052000ACE8C009ACE8C009ACE8C0098D4670472A
:1005300010B50446AFF300802046BDE81040FFF739
:100540006CBE0000004870470C4100200149182093
:10055000ABBEFEE726000200704710B503F08CFF2B
:10056000002010BD70B5044611A001F055F805003B
:1005700008D111A001F032FB13A001F02FFB16A04F
:1005800001F02CFB0321284601F04AF814B1012C9C
:1005900003D007E00022114601E000220121284695
:1005A00000F0F0FF2846BDE8704000F093BF000067
:1005B0006C656473000000005B572F6C65645F63BB
:1005C00074726C5D2000000066696E64206C656466
:1005D000206661696C0A00000A000000014800689A
:1005E000704700000000002010B500F017F8002050
:1005F00010BD0000084C4FF0FF3604F10805064915
:10060000334604220831206801F01AFE0028F6D192
:100610002878FFF7A7FFF2E7000000201CB50A21A9
:100620001920CDE900014FF480730022144915A070
:1006300003F056F8174C606058B103F06FFA0023CE
:100640001422282114A001F06BFD206060B100206D
:100650001CBD14A001F0C2FA16A001F0BFFA1EA042
:1006600001F0BCFA04201CBD0EA001F0B7FA1BA0DB
:1006700001F0B4FA18A001F0B1FA01201CBD00008D
:10068000F50500086C6564734374726C5F74736B7A
:1006900000000000000000206C6564734374726CFD
:1006A0005F6D71005B452F6C65645F6374726C5D98
:1006B00020000000675F6C6564734374726C5F5464
:1006C000736B207468726561645F737461727475B2
:1006D00070204641494C00000A000000675F6C65CD
:1006E00064734374726C5F4D71204641494C000045
:1006F000FEE710B500F004F8BDE81040FFF774BF46
:1007000010B5002000F08AFA40B117A001F066FA97
:1007100018A001F063FA1BA001F060FA1B481A4907
:1007200003224162132101750021C16101628162CE
:1007300017A101F015F800280BA00AD001F04EFA1D
:1007400015A001F04BFA0FA001F048FA4FF0FF306E
:1007500010BD01F043FA15A001F040FA09A001F024
:100760003DFA002010BD00005B452F6C6564735D91
:10077000200000004C656473496E697420666169ED
:100780006C0000000A0000000C4500081801002061
:100790006C656473000000004C45445320494E4989
:1007A00054206661696C65642E0A00004C45445310
:1007B00020494E495420537563636573730A0000E2
:1007C000704700002DE9F84FDFF8BCA10022012599
:1007D00003264FF00F090AF1040BAAF1040E00BF23
:1007E0000B6805FA02F42340A34270D10F7907F099
:1007F0000307012F01D0022F16D187684FEA420864
:1008000006FA08FC27EA0C07D1F80CC00CFA08FC21
:100810004CEA070CC0F808C04768A7430C79C4F33A
:10082000001494403C4344600C79E443A4070AD08C
:10083000C4684FEA420C06FA0CF7BC438F6807FA0B
:100840000CF72743C7600C7904F00304022C12D183
:10085000D40800EB840CDCF820405707FF0E09FA9F
:1008600007F824EA0804D1F8108008FA07F848EAE3
:100870000408CCF8208004684FEA420C06FA0CF712
:10088000BC430F7907F0030707FA0CF7274307600B
:100890004C6814F4403F70D03C4C276847F48047C4
:1008A0002760246822F0030704F480440094384C45
:1008B00007EB040CDCF8084897074FEA177809FAA9
:1008C00008F7BC43334FB84202D1002724E054E07C
:1008D000314FB84201D101271EE0304FB84201D15B
:1008E000022719E02E4FB84201D1032714E02D4F03
:1008F000B84201D104270FE02B4FB84201D10527A0
:100900000AE02A4FB84201D1062705E0284FB84235
:1009100001D1072700E0082707FA08F72743CCF89A
:100920000878DAF800405746D1F804C09C435FEAE3
:10093000CC2C00D51C433C60DBF800405F46D1F86E
:1009400004C09C435FEA8C2C00D51C433C60DEF85D
:1009500000407746D1F804C09C435FEA8C3C00D548
:100960001C433C60084F083F3C68D1F804C09C43DE
:100970005FEACC3C00D51C433C60521C102AFFF4BB
:100980002FAFBDE8F88F0000083C0140443802401A
:100990000030014000000240000402400008024014
:1009A000000C0240001002400014024000180240F7
:1009B000001C02400AB1816170470904FBE7000096
:1009C000014880687047000014000020014800685A
:1009D00070470000200000200448054900680968AD
:1009E000044AC1F38221515CC840704720000020B6
:1009F0000838024024450008044805490068096891
:100A0000044AC1F34231515CC840704720000020C5
:100A1000083802402445000810B5401EB0F1807F20
:100A200001D3012010BD4FF0E02460610F21601759
:100A300000F04DFA0020A06107202061002010BDC9
:100A400070B5040004D094F83D00002510B106E014
:100A5000012070BD84F83C50204600F023F824208B
:100A600084F83D002068C16821F40051C16020462F
:100A700000F06AF92068016921F490410161206861
:100A8000416921F02A0141612068C16841F40051A7
:100A9000C1602564202084F83D0084F83E000020D9
:100AA00070BD000010B586B0044614216846FFF7FB
:100AB000F0FC14492068884221D1134800210268C3
:100AC00042F010020260006800F0100005900E482D
:100AD0001438026842F001020260006800F0010070
:100AE00005904FF4C06000900220CDE90101032081
:100AF00003900720049069460448FFF763FE06B0A0
:100B000010BD0000001001404438024000000240C7
:100B10002DE9F843044690F83D001F4616460D4661
:100B200020284CD1C5B1BEB194F83C00012846D074
:100B3000012084F83C004FF00008C4F840802120D8
:100B400084F83D00FFF73CFFA6848146E684A06858
:100B5000B0F5805F03D004E00120BDE8F883206990
:100B600028B12E465FF0000584F83C800EE0002698
:100B7000FAE78021204600F06DF9A0B9AEB116F871
:100B8000010B21684860E08C401EE084E08C4B46FD
:100B90004FF0000200970028EBD14FF040012046B3
:100BA00000F058F930B10320D7E735F8020BC0F355
:100BB0000800E6E7202084F83D000020CDE7022071
:100BC000CBE7000010B528B10448006801F03CFEF6
:100BD000012010BD4FF0FF3010BD00000C000020C0
:100BE00010B5064811B1012902D005E0002200E04D
:100BF00001222021FFF7DEFE002010BD0008024088
:100C000010B501004FF0FF3005D0014602480068E2
:100C100001F0E6FE012010BD0C00002030B587B0C9
:100C200014216846FFF735FC24480024016841F090
:100C300080010160016801F080010591016841F0C7
:100C400004010160016801F004010591016841F0AF
:100C50000101016000681A4D00F0010005900122B9
:100C6000F0212846FFF7A6FEF02000900120CDE9F4
:100C70000104694628460394FFF7A4FD114C20683F
:100C8000002818D1002110A001F074FD206011A0EF
:100C900000F0A4FF12A000F0A1FF17A000F09EFF3B
:100CA000206840B915A000F099FF17A000F096FF4A
:100CB00011A000F093FF07B0002030BD3038024093
:100CC000000802400C0000206D757465786C656446
:100CD000730000005B572F6C6564735D200000009B
:100CE000667269737420696E6974206C6564734DF3
:100CF00075746578000000000A0000005B452F6CE9
:100D00006564735D20000000637265617465206D29
:100D1000757465786C656473206661696C656400E0
:100D2000FEE7FEE710B500F031FF02F0D1FFBDE8AD
:100D3000104000F045BF00000248016841F4700116
:100D40000160704788ED00E070B5044600680169F5
:100D5000E26821F44051114301612169A068E26910
:100D600008436169114308432168CA6849F20C636A
:100D70009A430243CA6020684169A26921F4407124
:100D80001143416131492068884202D0304988428C
:100D900002D1FFF731FE01E0FFF71EFEE2690023FA
:100DA000192164253226B2F5004F626828D0A0FBD5
:100DB0000101930F9200FFF7F5FA0146B0FBF5F041
:100DC0006FF01802504301EB800006EB0010B0FBFF
:100DD000F5F000F0F002B1FBF5F002EB0012B1FB10
:100DE000F5F06FF01803584301EB800006EB00109C
:100DF000B0FBF5F000F00F0021681044886070BD72
:100E0000A0FB010192185B41FFF7CCFA0146B0FB51
:100E1000F5F00201B1FBF5F06FF01803584301EB58
:100E2000800006EBC000B0FBF5F000F0F80002EB2C
:100E30004002B1FBF5F0584301EB800006EBC00027
:100E4000B0FBF5F000F00700D6E70000001001400D
:100E5000001401402DE9F041984617460E4604461D
:100E6000069D27E0681C25D02DB1FFF7A9FDA0EB5A
:100E70000800A8421ED920680C3050E8001F21F459
:100E8000D07140E80012002AF5D12068143050E8F3
:100E9000001F21F0010140E80012002AF5D12020B6
:100EA00084F83D0084F83E00002084F83C000320D4
:100EB000BDE8F0812068006836EA000004D0002018
:100EC000B842CFD00020F3E70120F9E7FEE7090799
:100ED000090E002804DB00F1E02080F800147047C0
:100EE00000F00F0000F1E02080F8141D70470000B2
:100EF000002807D00E4910F0FF0F04D051FA80F0FF
:100F00000078401C704710F47F4F04D0C0F30720D6
:100F1000085C0930704710F47F0F04D0C0F307401D
:100F2000085C1130704701EB106000781930704791
:100F30008846000810B502F0A9FD002806D0BDE8DB
:100F400010404FF0FF31024801F04ABD10BD0000D3
:100F50003C03002010B528B140F27E52064907A09C
:100F600000F060FA02F092FD002804D0BDE81040C5
:100F7000064801F069BC10BDAA4700086C6576659B
:100F80006C203D3D2052545F454F4B003C030020F8
:100F900010B50068143802F03BFD002010BD0000C1
:100FA0002DE9F041064614460D46084602F012FEB1
:100FB00005F11407F4B1012C07D0A422104911A0A7
:100FC00000F030FA0020BDE8F08134680EE000BF88
:100FD00095F8351094F82120A4F11400914204D220
:100FE0003946143000F028FE02E02468B442EFD104
:100FF000B442E7D13946304600F01EFEE2E7000079
:10100000404500083000000000F070BE00F024BF32
:1010100010B5044605488068FFF76AFF0449401E82
:1010200051F830102060A1F1140010BDF000002034
:10103000C803002070B50C480468FFF715F9054691
:10104000204602F02FF804F1440002F031FF0420A2
:1010500084F83400204602F07FFB2846FFF708F9A9
:10106000BDE8704001F074BFF40000202DE9FC41A0
:101070001F460446DDE90831DDE90A6514304060A9
:101080000060C4E90827C4E90A310A46232118464A
:1010900001F022F8D4E90A014218D4E90801114B01
:1010A000121F00F055FDE061202E04D3BD220E4931
:1010B0000EA000F0B7F984F835600020C4E90E05F1
:1010C0002564206384F8340020676067009023461D
:1010D00001900F4A194604F1440002F059FF002024
:1010E000BDE8FC8135100008E54800087072696FA2
:1010F00072697479203C2052545F544852454144EF
:101100005F5052494F524954595F4D4158000000B9
:101110001511000870B5040004D18622164917A0E5
:1011200000F080F994F8340000F00700022804D0A1
:101130008722114916A000F075F9204601F080FEC3
:10114000012804D088220C49204800F06BF9FFF7F1
:101150008BF805466FF00100206304F1140000F0E5
:101160007BFD204601F050FF2846FFF781F8BDE8DF
:10117000704001F0EDBE0000D5480008746872654B
:10118000616420213D2052545F4E554C4C000000BC
:10119000287468726561642D3E7374617420262022
:1011A00052545F5448524541445F535441545F4D3B
:1011B00041534B29203D3D2052545F5448524541F4
:1011C000445F53555350454E44000000E44B000823
:1011D00010B5029C24F001044472C0E907120021FA
:1011E000C0E9093114304060006010BD143000F0D7
:1011F0003CBD000008B54FF47A76304602F000FCA2
:10120000FFF7ECF9154C206040B915A000F0E6FCA2
:1012100016A000F0E3FC19A000F0E0FC0025012777
:10122000CDF8005002F04EFDC00713D08DF80070CD
:1012300004226946206801F04DF9304602F0E0FBD7
:1012400007A000F0CBFC0EA000F0C8FC0BA000F043
:10125000C5FCE7E78DF80050EAE700001000002029
:101260005B572F6D61696E5D200000004D53472074
:1012700068616E646C652065727200000A0000008F
:1012800068656C6C6F2052542D54687265616421DE
:101290000A00000010B500F009F9BDE81040FFF7A2
:1012A000A9BF00002DE9F04F85B09946DDE90EA5F4
:1012B000109CAB46630602D5DFF814C103E0DFF8EB
:1012C00010C1ACF1110CE30601D524F00104E307D1
:1012D00001D0302300E0202300260493A3070BD580
:1012E000002A02DA2D26524206E0630701D52B269A
:1012F00002E0230700D520260023EE4622B9302243
:101300008DF8002001230CE0B9F10A0F14D002F08F
:101310000F0812091CF808800EF803805B1C002AD5
:10132000F2D1AB4200DD1D46AAEB050214F0110F0D
:101330004FF0200708D015E00A27B2FBF7F807FBAB
:101340001828B2FBF7F2E5E73EB1002A05DD521E90
:1013500003E0884200D20770401CB2F1000CA2F1F9
:101360000102F6DC26B1884200D20670401C521EF3
:10137000E40605D508E0884201D2049C0470401CB4
:10138000141EA2F10102F6DC30242E466D1E9E4290
:101390000ADD884200D20470401CF6E7884201D280
:1013A000E55C0570401C00E074461D1EA3F10103BE
:1013B00007DDBBF1000FF1D103E0884200D20770D6
:1013C000401C131EA2F10102F7DC05B0BDE8F08F4E
:1013D000994700081CB514210A20CDE900014FF4FB
:1013E00000730022074908A002F07AF9040004D132
:1013F000D622074907A000F015F82046BDE81C409A
:1014000002F08CBB951200086D61696E000000004F
:101410002C45000874696420213D2052545F4E55CC
:101420004C4C000038B500238DF80030094B9C6807
:1014300024B101B0A446BDE83040604713460A46D7
:10144000014605A000F0CAFB9DF800000028FBD073
:1014500038BD0000340000202825732920617373F3
:10146000657274696F6E206661696C656420617471
:101470002066756E6374696F6E3A25732C206C69F3
:101480006E65206E756D6265723A2564200A0000F3
:1014900070B5044C044D02E020688047241DAC4226
:1014A000FAD370BD2C4C0008344C000870B5044CC5
:1014B000044D02E020688047241DAC42FAD370BD81
:1014C000344C00083C4C00080148408880B270470A
:1014D000F000002070B504004FF0000505D14FF476
:1014E0008972144914A0FFF79DFF204601F0A8FC63
:1014F000092805D040F213120E4913A0FFF792FFFE
:10150000A07E30B1401E10F0FF00A07604D0002075
:1015100070BD4FF0FF3070BD606A816829B1204610
:101520008847050001D0A81D01D10020208328464E
:1015300070BD0000414A000864657620213D2052BC
:10154000545F4E554C4C000072745F6F626A656365
:10155000745F6765745F7479706528266465762D9D
:101560003E706172656E7429203D3D2052545F4F7C
:10157000626A6563745F436C6173735F4465766927
:101580006365000070B515460E46040005D140F2B3
:101590008F120D490DA0FFF745FF204601F050FCCA
:1015A000092805D04FF4C87207490CA0FFF73AFF8D
:1015B000606A43692BB12A4631462046BDE8704037
:1015C00018476FF0050070BD704A0008646576200A
:1015D000213D2052545F4E554C4C000072745F6F99
:1015E000626A6563745F6765745F747970652826E5
:1015F0006465762D3E706172656E7429203D3D20D4
:1016000052545F4F626A6563745F436C6173735FCA
:101610004465766963650000092101F0B1BB0000F3
:1016200070B50E4604004FF0000504D1D0222549C4
:1016300025A0FFF7F7FE204601F002FC092804D0A0
:10164000D122204924A0FFF7EDFEA07DC00610D4D2
:10165000606A016849B120468847050005D0024606
:1016600021462CA000F0BAFA2AE0E08A40F01000EF
:10167000E082A07D000705D5207E000702D56FF02F
:10168000060070BD606A42683AB131462046904714
:10169000050006D0A81D04D012E040F60F700640E9
:1016A0002683208B40F008002083A07E401C10F091
:1016B000FF00A07604D1FF22024924A0FFF7B2FE6A
:1016C000284670BD324A000864657620213D2052CC
:1016D000545F4E554C4C000072745F6F626A6563D4
:1016E000745F6765745F7479706528266465762D0C
:1016F0003E706172656E7429203D3D2052545F4FEB
:10170000626A6563745F436C6173735F4465766995
:1017100063650000546F20696E697469616C697A51
:1017200065206465766963653A2573206661696C36
:1017300065642E20546865206572726F7220636F35
:1017400064652069732025640A0000006465762DB5
:101750003E7265665F636F756E7420213D203000B8
:101760002DE9F041154604000F464FF0FF3603D037
:101770000846FFF751FF10B13046BDE8F0813A4608
:101780000921204601F076FBE5820020A076208327
:10179000F3E700002DE9F0411D4616460F46040010
:1017A00005D140F26B12144914A0FFF73BFE20460E
:1017B00001F046FB092805D04FF4B6720E4913A07C
:1017C000FFF730FEA07E60B1606AD0F810C0BCF1B7
:1017D000000F09D02B46324639462046BDE8F0417D
:1017E00060474FF0FF3001E06FF0050001F00CFEA4
:1017F0000020BDE8F0810000604A000864657620A2
:10180000213D2052545F4E554C4C000072745F6F66
:10181000626A6563745F6765745F747970652826B2
:101820006465762D3E706172656E7429203D3D20A1
:1018300052545F4F626A6563745F436C6173735F98
:10184000446576696365000010B5FEF70DFD044A36
:101850005188491C5180BDE81040FEF709BD0000C9
:10186000F000002010B5FEF7FFFC0B4C6188491E0C
:1018700009B2618000290ADC00216180FEF7F8FCD2
:101880006068002807D0BDE8104001F061BBBDE8EA
:101890001040FEF7EDBC10BDF000002070B5040054
:1018A0000AD0FFF747FB05462046FFF7AFFB284667
:1018B000BDE87040FFF74EBB70BD000000487047A8
:1018C000C804002000487047C840002010B5FFF74A
:1018D0007DF84FF47A71B0FBF1F0FFF79DF8FFF758
:1018E000D7FDFFF7EFFF0446FFF7E8FF2146BDE80D
:1018F000104001F02FBE0000F8B506460D200F493C
:101900008DF80000002481F83C40304601F0F7FDDE
:1019100005460FE0305D0A2805D101231A466946C5
:101920000648FFF7F5F8012331191A460348FFF777
:10193000EFF8641CAC42EDD3F8BD0000C8400020B5
:1019400070B52F490546283009682C1D11B188470C
:10195000002853D02BA0216C00F040F92DA0616A23
:1019600000F03CF92FA0A16A00F038F931A0E16A3B
:1019700000F034F933A0216B00F030F935A0616834
:1019800000F02CF937A0A16800F028F939A0E1682F
:1019900000F024F93BA0216900F020F93DA0616925
:1019A00000F01CF93FA0A16900F018F941A0E1691D
:1019B00000F014F943A0216A00F010F945A0616B12
:1019C00000F00CF947A0A16B00F008F949A0E16B09
:1019D00000F004F92878400706D502F057F80146D0
:1019E00048A000F0FBF802E04EA000F0F7F82878DD
:1019F000C00602D452A000F0F1F8FEE770BD00006E
:101A0000080100207073723A203078253038780A47
:101A1000000000007230303A203078253038780AE3
:101A2000000000007230313A203078253038780AD2
:101A3000000000007230323A203078253038780AC1
:101A4000000000007230333A203078253038780AB0
:101A5000000000007230343A203078253038780A9F
:101A6000000000007230353A203078253038780A8E
:101A7000000000007230363A203078253038780A7D
:101A8000000000007230373A203078253038780A6C
:101A9000000000007230383A203078253038780A5B
:101AA000000000007230393A203078253038780A4A
:101AB000000000007231303A203078253038780A42
:101AC000000000007231313A203078253038780A31
:101AD000000000007231323A203078253038780A20
:101AE00000000000206C723A203078253038780AE7
:101AF000000000002070633A203078253038780AE2
:101B00000000000068617264206661756C74206F6B
:101B10006E207468726561643A2025730D0A0D0A9F
:101B20000000000068617264206661756C74206F4B
:101B30006E2068616E646C65720D0A0D0A0000000B
:101B400046505520616374697665210D0A000000D6
:101B500070B50446121D22F0070000220A4D4438D9
:101B600040F82250521C112AFAD3416200218162AE
:101B7000C16200F13402016382E81A004FF0807301
:101B80000364016070BD0000EFBEADDE10B5FEF76E
:101B90006BFB044A1178491C1170BDE81040FEF738
:101BA00067BB00003000002010B5FEF75DFB034965
:101BB0000C78FEF75DFB204610BD000030000020D1
:101BC00010B5FEF751FB044A1178491E1170BDE8AB
:101BD0001040FEF74DBB0000300000200FB47F2105
:101BE00010B503AB0B48029A02F0F4FA04467F28C2
:101BF00000D97F240848006840B12346054A0021E7
:101C0000FFF7C8FD204610BC5DF814FB0148FFF744
:101C100073FEF7E7BC020020340000200268516028
:101C200002680A600160486070470268516002689B
:101C30000A600160486070474268116042684A600B
:101C4000416008607047D0E900124A60D0E9001294
:101C50001160406000607047D0E900124A60D0E92E
:101C600000121160406000607047D0E900124A60C5
:101C7000D0E90012116040600060704770B5054601
:101C8000FFF758F9044629460448FFF7BDF9054611
:101C90002046FFF75FF9284670BD00006003002072
:101CA00010B50346102A1DD341EA0304A40719D135
:101CB00010C9103A10C310C9102A10C351F8084BAC
:101CC00043F8084B51F8044C43F8044CF0D202E0BE
:101CD00010C9121F10C3042AFAD203E011F8014BF5
:101CE00003F8014B521EF9D210BD00002DE9F0415E
:101CF0000C46050004D1BD22414942A0FFF792FBEA
:101D0000284601F09DF8072804D0BE223C4941A096
:101D1000FFF788FBE41C24F003060C2E00D20C26EF
:101D2000E869B04269D905F14400696E0027804630
:101D300031B9791E01F090FA10B101F065FB5CE059
:101D4000A86A046905E0A1680F1B183FB74200D2DA
:101D50002469A04201D0B742F5D3B74248D306F177
:101D600024000021874226D3A0193A4A4462E0E9C0
:101D70000625A2688260A268D060A060D4E904232E
:101D80005361D4E904231A6121616161A96A096977
:101D90000161A96A4161A96A09694861A96A086182
:101DA000E869801B1838E861A969081A296A88421D
:101DB00012D9286210E0E869C01BE861AA69101A0C
:101DC0002A6A904200D92862D4E904024261D4E927
:101DD00004021061216161611E48401C2060686E30
:101DE00010B9404601F0F6F904F11800BDE8F081A1
:101DF000686E10B9404601F0EDF90020F6E70000EA
:101E0000ED4700086865617020213D2052545F4E07
:101E1000554C4C0072745F6F626A6563745F6765EE
:101E2000745F747970652826686561702D3E7061F5
:101E300072656E7429203D3D2052545F4F626A6581
:101E400063745F436C6173735F4D656D486561706A
:101E500000000000A01EA01E70B500287AD0A0F1DE
:101E600018043D49206801264D10884204D1A2681B
:101E70001268B5EB520F12D0884205D040F26E22A4
:101E8000364937A0FFF7CEFAA0680068B5EB500FCF
:101E900005D04FF41C72314940A0FFF7C3FA6568C2
:101EA0002DB940F276222D494CA0FFF7BBFA284607
:101EB00000F0C6FF072805D040F27722274949A045
:101EC000FFF7B0FA686E50B94FF0FF3105F14400EA
:101ED00001F0C2F918B1BDE8704001F095BA1E4892
:101EE000401E2060A068E969001B18380844E861BA
:101EF000E1680978C90709D11830E861D4E902011D
:101F000000268860D4E90201C160E468A068007816
:101F1000C0070DD1E8691830E861A0688168CC601D
:101F20008168A160D0E904124A61D0E9041001611E
:101F30003EB1A86A006920614169616141690C6133
:101F40004461686E002805D105F14400BDE8704089
:101F500001F040B970BD0000A11EA01E114800088C
:101F60006865616465725F7074722D3E6D6167694A
:101F700063203D3D202852545F4D454D484541501A
:101F80005F4D41474943207C2052545F4D454D48A9
:101F90004541505F5553454429000000286865615C
:101FA0006465725F7074722D3E6E6578742D3E6D3F
:101FB0006167696320262052545F4D454D48454175
:101FC000505F4D41534B29203D3D2052545F4D45BC
:101FD0004D484541505F4D41474943006865617038
:101FE0000000000072745F6F626A6563745F67650A
:101FF000745F747970652826686561702D3E706124
:1020000072656E7429203D3D2052545F4F626A65AF
:1020100063745F436C6173735F4D656D4865617098
:10202000000000002DE9F0411E4615460F46040051
:1020300004D15122214922A0FFF7F4F93A460721A1
:10204000204600F017FF26F00300C4E905503038A1
:10205000E0613020206204F12C001E49002680E857
:102060005200C0E903602064A06285E85200C5E91F
:1020700003656D61E16905F118000844A860E86036
:102080006562A06A1349012300692861A06A68613A
:10209000A06A491C1A4600694561A06A0561A868E2
:1020A00080E832004661C0E90356394604F1440035
:1020B00001F030F800206666BDE8F081CB470008EB
:1020C0006D656D6865617020213D2052545F4E55ED
:1020D0004C4C0000A01EA01E10B50346CCB2042A32
:1020E0001AD3810718D1194644EA042343EA03436B
:1020F00006E008C1103A08C141F8083B41F8043C29
:10210000102AF6D201E008C1121F042AFBD20B46A6
:1021100002E000BF03F8014B521EFBD210BD0000CD
:102120002DE9F0411F0016460D46044607D0012F49
:1021300005D040F63C22274927A0FFF773F9FEF7A8
:1021400093F88046FFF730FD48B1224931A0FFF7F0
:1021500045FD40F63E221F4938A0FFF763F940468F
:10216000FEF786F82146062000F038FD04001BD05B
:10217000677204F11400A06160614FF6FC70ED1C01
:102180000540B1B22584281D61844843FFF776FDE0
:10219000E06128B10021A162E162084621630EE0FE
:1021A000204600F083FD0020BDE8F081228CE36929
:1021B000121D00FB0232236B1360401C2263628CF1
:1021C0008242F3DCA18404F13400A0636063204602
:1021D000EAE700003846000828666C6167203D3D4C
:1021E0002052545F4950435F464C41475F46494641
:1021F0004F29207C7C2028666C6167203D3D205261
:10220000545F4950435F464C41475F5052494F2904
:102210000000000046756E6374696F6E5B25735D28
:10222000207368616C6C206E6F742062652075731A
:10223000656420696E204953520A00003000000096
:102240002DE9FF4F81B016468B46040005D140F6BC
:1022500007426F496FA0FFF7E5F8204600F0F0FD58
:10226000062805D040F6084269496E48FFF7DAF8BB
:10227000BBF1000F05D140F6094265496AA0FFF79E
:10228000D1F82EB940F60A4261496CA0FFF7CAF8AE
:102290000498002837D0FDF7E7FF8146FFF714F9CF
:1022A00040F60D4540B15A4967A0FFF797FC2A4612
:1022B000574964A0FFF7B6F8FDF7D6FF804601F056
:1022C000E5FB40B952496BA0FFF788FC2A4650490C
:1022D0005CA0FFF7A7F8FDF7C7FF0746FFF764FC10
:1022E00040B14B4971A0FFF779FC2A46484955A0F7
:1022F000FFF798F83846FDF7BBFF4046FDF7B8FFFB
:102300004846FDF7B5FF4FF0000A01F0BFFB054658
:10231000FDF7AAFF0746A08C04996FF00108084357
:102320004FF000093AD13846FDF7A2FF404605B00C
:10233000BDE8F08FC5F83090049800285BD0627A31
:10234000294604F11400FEF72BFE049800280CDD4A
:1023500001F0B8FC824605F1440004AA0021009077
:1023600001F020FD009801F063FE3846FDF780FF84
:1023700000F0EEFD286B0028D9D1FDF775FF074668
:10238000049800280ADD01F09DFC0499A0EB0A0ADC
:10239000B1EB0A00049001D5CDF81090A08C002874
:1023A000C8D0A56A2868A062E06AA84201D1C4F832
:1023B0002C90A08C401EA0843846FDF759FF208C3D
:1023C000B04200D206463246291D5846FFF768FC47
:1023D000FDF74AFF0646206B28602563616B04F118
:1023E000340081420ED0FEF7D3FD3046FDF740FFAA
:1023F00000F0AEFD09E03846FDF73AFF4046C5F86B
:10240000308094E73046FDF733FF00208FE700006F
:102410006F4600086D7120213D2052545F4E554C8F
:102420004C000000004B0008627566666572202152
:102430003D2052545F4E554C4C00000073697A6544
:1024400020213D203000000046756E6374696F6E78
:102450005B25735D3A207363686564756C657220F3
:102460006973206E6F7420617661696C61626C655E
:102470000A00000046756E6374696F6E5B25735DBC
:10248000207368616C6C206E6F74206265207573B8
:102490006564206265666F72652073636865647544
:1024A0006C65722073746172740A000046756E6305
:1024B00074696F6E5B25735D207368616C6C206E50
:1024C0006F74206265207573656420696E204953BE
:1024D000520A0000002300F001B800002DE9FF4F70
:1024E00081B09046040005D140F6C822704971A021
:1024F000FEF798FF204600F0A3FC062805D040F622
:10250000C9226B496F48FEF78DFF029828B940F643
:10251000CA2267496CA0FEF785FFB8F1000F05D10C
:1025200040F6CB2262496DA0FEF77CFF049800289C
:1025300037D0FDF799FE8146FEF7C6FF40F6CE255F
:1025400040B15B4968A0FFF749FB2A46584965A09E
:10255000FEF768FFFDF788FE064601F097FA40B9DE
:1025600053496CA0FFF73AFB2A4651495DA0FEF79C
:1025700059FFFDF779FE0746FFF716FB40B14C49BE
:1025800072A0FFF72BFB2A46494956A0FEF74AFFE7
:102590003846FDF76DFE3046FDF76AFE4846FDF70A
:1025A00067FE218C414504D24FF0FF3005B0BDE8F5
:1025B000F08F4FF0000901F069FA0646FDF754FE6E
:1025C0000746206B04996FF0020B0843494618D068
:1025D0008A46256BBDB1286820633846FDF748FE62
:1025E000C5F800A04246281D0299FFF759FBFDF7E8
:1025F0003BFE0646E06A00B10560E562A06AB8B33A
:1026000038E038464BE0C6F830A00498554600281C
:10261000F7D0627A314604F13400FEF7C1FC049829
:1026200000280CDD01F04EFB814606F1440004AAAF
:102630000021009001F0B6FB009801F0F9FC38464B
:10264000FDF716FE00F084FC306B0028AED1FDF7DC
:102650000BFE074604980028BBDD01F033FB04990C
:10266000A0EB0909B1EB09000490B2D50495B0E7DD
:10267000FFE7A562A08C4FF6FF7188420ED2401C86
:10268000A084616904F1140081420CD0FEF780FC43
:102690003046FDF7EDFD00F05BFC07E03046FDF74E
:1026A000E7FD584682E73046FDF7E2FD00207DE772
:1026B000524600086D7120213D2052545F4E554C0A
:1026C0004C000000004B00086275666665722021B0
:1026D0003D2052545F4E554C4C00000073697A65A2
:1026E00020213D203000000046756E6374696F6ED6
:1026F0005B25735D3A207363686564756C65722051
:102700006973206E6F7420617661696C61626C65BB
:102710000A00000046756E6374696F6E5B25735D19
:10272000207368616C6C206E6F7420626520757315
:102730006564206265666F726520736368656475A1
:102740006C65722073746172740A000046756E6362
:1027500074696F6E5B25735D207368616C6C206EAD
:102760006F74206265207573656420696E2049531B
:10277000520A000070B50446FDF776FD0546FFF7E6
:1027800013FA48B10F4910A0FFF728FA40F23D3282
:102790000C4917A0FEF746FE2846FDF769FD2146C5
:1027A000032000F01BFA00280BD000F11401816116
:1027B0004161012100228183FF2302628377C27776
:1027C000417270BDD045000846756E6374696F6EC6
:1027D0005B25735D207368616C6C206E6F74206282
:1027E00065207573656420696E204953520A0000A4
:1027F0003000000070B50D46040005D140F2EB2218
:102800000B490CA0FEF70EFE2A460321204600F0DD
:1028100031FB04F11400A061606101200021A0835C
:10282000FF222162A277E1776072084670BD000046
:10283000B24500086D7574657820213D2052545FC3
:102840004E554C4C000000002DE9F041040005D12C
:1028500040F24942424943A0FEF7E4FD204600F021
:10286000EFFA032805D040F24A423D494248FEF7BC
:10287000D9FDFDF7F9FC064601F008F940F24F4595
:1028800040B937493DA0FFF7A9F92A46344949A084
:10289000FEF7C8FDFDF7E8FC0746FFF785F940B1F4
:1028A0002F4945A0FFF79AF92A462D4941A0FEF786
:1028B000B9FD3846FDF7DCFC3046FDF7D9FC01F0E8
:1028C000E5F80546FDF7D0FC0646206AA84208D088
:1028D0004FF0FF3430462C63FDF7CAFC2046BDE8BC
:1028E000F081E17F491E11F0FF01E1772ED1A17F38
:1028F00090F83520914204D004F11E02022100F02C
:102900008FFE606904F114016FF00205884212D055
:102910001438206290F83500A077E07FFF281AD2A3
:10292000401CE0770846FEF733FB3046FDF7A0FC7D
:1029300000F00EFB0DE0A08B4FF6FF7188420AD22B
:10294000401CA08300202062FF20A0773046FDF7C6
:102950008FFC0020C3E73046FDF78AFC2846BEE71F
:10296000FE4500086D7574657820213D2052545F46
:102970004E554C4C00000000484B000846756E63F5
:1029800074696F6E5B25735D207368616C6C206E7B
:102990006F742062652075736564206265666F726E
:1029A00065207363686564756C6572207374617209
:1029B000740A00003000000046756E6374696F6E23
:1029C0005B25735D207368616C6C206E6F74206290
:1029D00065207573656420696E204953520A0000B2
:1029E0002DE9F3410446FDF73FFC8046FEF76CFD00
:1029F00040F2993540B14E494EA0FFF7EFF82A4614
:102A00004B4957A0FEF70EFDFDF72EFC064601F0E0
:102A10003DF840B9464953A0FFF7E0F82A4644493B
:102A20004FA0FEF7FFFCFDF71FFC0746FFF7BCF8C1
:102A300040B13F4959A0FFF7D1F82A463C4948A088
:102A4000FEF7F0FC3846FDF713FC3046FDF710FCAE
:102A50004046FDF70DFC2CB94FF46772344959A07C
:102A6000FEF7E0FC204600F0EBF9032805D040F229
:102A70009D322F495848FEF7D5FC01F007F805466E
:102A8000FDF7F2FB064600202863236AC71EAB420F
:102A900005D1E07FFF280BD2401CE0773AE0A08B05
:102AA00060B1401EA083256295F83500A077F0E75D
:102AB0003046FDF7DDFB3846BDE8FC81019870B378
:102AC00095F8350093F83510884205D205F13502A6
:102AD0000221184600F0A4FD627A294604F1140090
:102AE000FEF75EFA0198002809DD05F1440001AA0D
:102AF0000021044601F056F9204601F099FA3046CB
:102B0000FDF7B6FB00F024FA286B0028D4D1FDF7BE
:102B1000ABFB06463046FDF7ABFB0020CCE7FFE7FA
:102B20006FF0010430462C63FDF7A2FB2046C3E79B
:102B3000F045000846756E6374696F6E5B25735DC2
:102B40003A207363686564756C6572206973206EE2
:102B50006F7420617661696C61626C650A000000C7
:102B60003000000046756E6374696F6E5B25735D9F
:102B7000207368616C6C206E6F74206265207573C1
:102B80006564206265666F7265207363686564754D
:102B90006C65722073746172740A000046756E630E
:102BA00074696F6E5B25735D207368616C6C206E59
:102BB0006F74206265207573656420696E204953C7
:102BC000520A00006D7574657820213D2052545FD3
:102BD0004E554C4C00000000484B00082DE9F041D8
:102BE0000F460646FDF740FB0446FEF7DDFF48B101
:102BF0001C491DA0FEF7F2FF40F2B712194924A0AC
:102C0000FEF710FC2046FDF733FB304600F006F9D6
:102C1000050005D140F2BB1212491EA0FEF702FCCE
:102C2000E868FFF72BF8040019D00021EA68FFF7E5
:102C300053FA26720020607208223946204600F0BE
:102C400076FCFDF711FB064604F10C01281DFEF78A
:102C5000E5FF3046FDF70CFB2046BDE8F081002083
:102C6000FBE700004148000846756E6374696F6EAB
:102C70005B25735D207368616C6C206E6F742062DD
:102C800065207573656420696E204953520A0000FF
:102C900030000000696E666F726D6174696F6E203E
:102CA000213D2052545F4E554C4C000070B504003D
:102CB00005D140F2F5120F490FA0FEF7B3FB207AC1
:102CC000000605D54FF4FB720A4910A0FEF7AAFBD7
:102CD00000202072FDF7C8FA054604F10C00FEF74B
:102CE000B2FF2846FDF7C4FA2046BDE87040FEF763
:102CF000D5BD0000544800086F626A6563742021E6
:102D00003D2052545F4E554C4C00000021286F620C
:102D10006A6563742D3E7479706520262052545F75
:102D20004F626A6563745F436C6173735F53746170
:102D3000746963290000000070B5040005D140F2F9
:102D40009312094909A0FEF76DFB00202072FDF7E0
:102D50008BFA054604F10C00FEF775FF2846BDE826
:102D60007040FDF785BA0000304800086F626A6560
:102D7000637420213D2052545F4E554C4C0000009E
:102D80002DE9F0410646084600F048F80546C6B170
:102D9000BDB1FDF769FA0446FEF706FF48B11349D5
:102DA00013A0FEF71BFF40F2492210491AA0FEF7BC
:102DB00039FB2046FDF75CFAFEF746FD55F8044F57
:102DC0000BE00020BDE8F081A4F10C0007460822CA
:102DD000314600F09CFB28B12468AC42F4D1FEF7E8
:102DE00041FDEEE7FEF73EFD3846EBE7924800086E
:102DF00046756E6374696F6E5B25735D20736861E1
:102E00006C6C206E6F742062652075736564206938
:102E10006E204953520A000030000000074A00218A
:102E200002EB01131B78834202D102EB01107047C1
:102E3000491C0829F4DB00207047000070000020C6
:102E400010B5040005D140F22B22044904A0FEF77E
:102E5000E9FA207A20F0800010BD00007F480008C9
:102E60006F626A65637420213D2052545F4E554C59
:102E70004C0000002DE9F047064692468846084679
:102E8000FFF7CCFF050005D14FF4AB72174918A02E
:102E9000FEF7C8FAFEF7D8FC4FF4B3792F1D6C6823
:102EA0000BE000BFB4F10C0006D0B04204D14A469A
:102EB0000E4915A0FEF7B6FA2468BC42F2D1FEF71F
:102EC000D1FC48F08000307208225146304600F0B4
:102ED0002EFBFDF7C9F9044606F10C01281DFEF78B
:102EE0009DFE2046BDE8F047FDF7C2B92148000825
:102EF000696E666F726D6174696F6E20213D20523C
:102F0000545F4E554C4C00006F626A20213D206F8B
:102F1000626A65637400000010B5040005D14FF4C7
:102F20000672054905A0FEF77DFA207A000601D554
:102F3000012010BD002010BD654800086F626A6561
:102F4000637420213D2052545F4E554C4C000000CC
:102F5000F8B5FDF789F92A4D07466888D0BBA868FF
:102F6000C0B300266846FEF753F80446686890F838
:102F7000341001F00702032A0ED190F83520009B8F
:102F80009A4202D303D10A0701D4044600E0012685
:102F900021F0080180F83410844222D0009A29469A
:102FA0002A7005464C600EB100F02EF8204600F065
:102FB00079F894F8340020F00700C01C84F834003D
:102FC0001048007804F11C01002805F11C0002D013
:102FD000FDF751F90EE0FDF74EF93846FDF748F9D7
:102FE000F8BD00F05FF8686810F8341F21F00701A1
:102FF000C91C01703846BDE8F840FDF739B900003A
:10300000F00000203000002070B5050005D140F22E
:10301000E7221C491CA0FEF705FAFDF725F91F4918
:1030200002464868854206D115F8340F20F00700A3
:10303000C01C287020E095F8340005F1140420F03D
:103040000700401C85F834000307154895F8353013
:1030500000EBC30006D543681C60436863604460AE
:10306000206005E003685C600368236004606060C2
:10307000A86B8B6818438860BDE870401046FDF768
:10308000F7B80000A14800087468726561642021E7
:103090003D2052545F4E554C4C000000F000002083
:1030A000C803002010B5040005D140F25132114987
:1030B00011A0FEF7B7F9FDF7D7F804F11401D1E933
:1030C00000235360D1E900231A60A161616194F883
:1030D00035200E4951F8323001EBC2018B4204D148
:1030E0000B49A36B8A689A438A60BDE81040FDF7DC
:1030F000BFB80000BB480008746872656164202195
:103100003D2052545F4E554C4C000000C803002037
:10311000F00000202DE9F0411D4616460F46040040
:1031200005D140F22D12124912A0FEF77BF9B6F537
:10313000803F05D34FF497720D4912A0FEF772F944
:103140003DB1012D05D040F22F12094912A0FEF722
:1031500069F93A4602212046FFF78CFE04F114007B
:10316000A0616061A68365720020BDE8F081000067
:103170005245000873656D20213D2052545F4E5525
:103180004C4C000076616C7565203C203078313005
:10319000303030550000000028666C6167203D3DEE
:1031A0002052545F4950435F464C41475F46494671
:1031B0004F29207C7C2028666C6167203D3D205291
:1031C000545F4950435F464C41475F5052494F2935
:1031D0000000000070B5040005D14FF419721849C1
:1031E00018A0FEF71FF92046FFF72AFE022805D097
:1031F00040F2652212491748FEF714F9FDF734F83A
:103200000546616904F11400814207D0FDF7C0FE54
:103210002846FDF72DF8FFF79BFE09E0A08B4FF63F
:10322000FF71884206D2401CA0832846FDF720F893
:10323000002070BD2846FDF71BF86FF0020070BD3E
:103240009445000873656D20213D2052545F4E5512
:103250004C4C0000B84A00082DE9F347040005D1A2
:103260004FF4F5723E493FA0FEF7DCF82046FFF729
:10327000E7FD022805D040F2EB1239493D48FEF740
:10328000D1F8FCF7F1FF0646A08B28B1401EA083C1
:103290003046FCF7EDFF61E00198B8B1FCF7E4FFC0
:1032A0008146FEF711F940F20B2540B12C4932A0BE
:1032B000FEF794FC2A462A493AA0FEF7B3F8FCF739
:1032C000D3FF804600F0E2FB38B10FE03046FCF758
:1032D000CFFF6FF00100BDE8FC87214932A0FEF767
:1032E0007DFC2A461E492FA0FEF79CF8FCF7BCFF88
:1032F0000746FEF759FC40B1194939A0FEF76EFCAC
:103300002A46174927A0FEF78DF83846FCF7B0FF8C
:103310004046FCF7ADFF4846FCF7AAFF00F0B6FBBD
:10332000054600202863627A294604F11400FDF75F
:1033300037FE0198002809DD05F1440001AA0021AB
:10334000044600F02FFD204600F072FE3046FCF7E8
:103350008FFFFFF7FDFD286B0028BCD10020BAE7E6
:103360008845000873656D20213D2052545F4E55FD
:103370004C4C0000B84A000846756E6374696F6E65
:103380005B25735D3A207363686564756C657220B4
:103390006973206E6F7420617661696C61626C651F
:1033A0000A0000003000000046756E6374696F6E9D
:1033B0005B25735D207368616C6C206E6F74206296
:1033C000652075736564206265666F72652073633E
:1033D000686564756C65722073746172740A0000AC
:1033E00046756E6374696F6E5B25735D20736861EB
:1033F0006C6C206E6F742062652075736564206943
:103400006E204953520A000070B50446FEF7CCFB0B
:10341000044D20B900F03AFB08B1046370BD6C6044
:1034200070BD0000340000201CB50AA0FEF7D6FBDA
:103430000BA0FEF7D3FB13A115A0CDE900010123DA
:103440001A46042115A0FEF7C9FB1DA0FEF7C6FB16
:103450001CBD00000A205C207C202F0A0000000018
:103460002D205254202D2020202020546872656188
:1034700064204F7065726174696E6720537973744C
:10348000656D0A0032323A30383A303400000000BC
:103490004F6374202031203230323400202F207CC2
:1034A000205C202020202025642E25642E256420E9
:1034B0006275696C642025732025730A0000000082
:1034C0002032303036202D203230323220436F709F
:1034D0007972696768742062792052542D54687239
:1034E000656164207465616D0A0000000FB410B559
:1034F00004AA039900F0B0FF10BC5DF814FB01466C
:1035000000E0491C0A78002AFBD1081A704710B560
:10351000002308E0047811F8013BE31A5BB223B9F9
:10352000401C14B1521E002AF4D1184610BD10B52B
:10353000002A07D0034611F8014B03F8014B2CB1C8
:10354000521EF8D110BD03F8011B00E00021521EED
:10355000F9D110BD70B50446C01C20F0030521F060
:103560000306AE4205D840F2D452094909A0FDF73E
:1035700059FF731B22460DA10E48FEF753FDBDE80F
:1035800070400C4801220CA12438FFF733B9000029
:10359000B7470008656E645F616C69676E203E2006
:1035A000626567696E5F616C69676E00686561700E
:1035B00000000000600300206865617000000000EA
:1035C00010B5074B0022074C5A80104604EBC0018F
:1035D000401C496009602028F8DB9A6010BD00009B
:1035E000F0000020C803002038B56846FDF710FD44
:1035F0000446064844602046FFF754FD032084F843
:10360000340004F11C00FCF77CFE38BDF000002003
:1036100001484060006070470001002070470000D2
:103620002DE9F04116460D46040005D140F2D7229F
:10363000244925A0FDF7F6FE2046FFF701FC0128EE
:1036400005D04FF436721F492448FDF7EBFE25B331
:10365000012D27D0022D11D1FCF706FE074694F864
:103660003400012500F0070001280AD0307884F8E2
:1036700035008540A5633846FCF7FAFD0020BDE81B
:10368000F0812046FFF70EFD307884F83500854044
:103690002046A563FFF7B8FCEDE72046BDE8F04102
:1036A00000F03CBA2046FFF737FC0128204606D040
:1036B00000F05EF80446FFF74BFC2046DFE700F021
:1036C000BFF8F7E75B490008746872656164202100
:1036D0003D2052545F4E554C4C000000E44B000816
:1036E0002DE9FF478946DDE90C76824601461D46F5
:1036F00090460120FFF772FA041E0DD02846FEF70F
:10370000BDFA60B103968DE8A10043464A46514692
:103710002046FDF7ABFC204604B0BDE8F08720460C
:10372000FFF7C4FA0020F7E770B50A4800250468DF
:1037300084420DD0A4F11405FCF796FDD4E90012E3
:103740004A60D4E90012116064602460FCF790FDC7
:10375000284670BD28000020044914300A685060D3
:103760000A6802600860416070470000280000207D
:1037700070B5040005D14FF4FC721B491BA0FDF786
:1037800051FE2046FFF75CFB012805D040F2F912FC
:1037900015491B48FDF746FE2046FFF7BDFB28B143
:1037A0004FF4FD72104917A0FDF73CFE94F8340069
:1037B00000F00701042914D0400702D02046FFF78B
:1037C00071FCFCF751FD054604F1440000F070FB6C
:1037D000042084F834002046FFF7BEFF2846FCF79B
:1037E00047FD002070BD0000244900087468726520
:1037F000616420213D2052545F4E554C4C00000026
:10380000E44B000872745F6F626A6563745F69738A
:103810005F73797374656D6F626A6563742828726B
:10382000745F6F626A6563745F742974687265613E
:103830006429203D3D2052545F46414C53450000D1
:1038400070B5040005D140F291121B491BA0FDF791
:10385000E9FD2046FFF7F4FA012805D04FF4C972BC
:1038600015491B48FDF7DEFD2046FFF755FB28B93B
:1038700040F29312104917A0FDF7D4FD94F83400DC
:1038800000F00701042914D0400702D02046FFF7BA
:1038900009FCFCF7E9FC054604F1440000F008FBD4
:1038A000042084F834002046FFF756FF2846FCF732
:1038B000DFFC002070BD00001349000874687265C9
:1038C000616420213D2052545F4E554C4C00000055
:1038D000E44B000872745F6F626A6563745F6973BA
:1038E0005F73797374656D6F626A6563742828729B
:1038F000745F6F626A6563745F742974687265616E
:1039000064290000FFF710FF0400FBD0266FFFF7CB
:1039100003FB0546012802D12046FFF70DFA0EB140
:103920002046B047002DEDD1A06AFDF7B7FF204635
:10393000FFF7BCF9E6E7000010B586B000220BA146
:1039400004A8FFF7D3FD0B4820231F22D9008DE8E0
:103950000F00A0F1780420460023074A04A900F0D4
:103960000DF8204600F0DAF806B010BD7469646CFA
:1039700065256400BC010020053900082DE9FF5FC2
:103980009A46DDE90E48DDE9107693468946050042
:1039900005D140F233120E490EA0FDF743FD2CB9BC
:1039A0004FF49A720A4910A0FDF73CFD4A460121E6
:1039B0002846FFF75FFACDE90048CDE90276534685
:1039C0005A4649462846FDF751FB04B0BDE8F09F32
:1039D000F248000874687265616420213D205254E9
:1039E0005F4E554C4C000000737461636B5F7374E1
:1039F00061727420213D2052545F4E554C4C0000A2
:103A000010B500F045F9BDE8104000F045B80000E1
:103A100070B5040005D140F27A32154915A0FDF7C2
:103A200001FD2046FFF70CFA012805D040F27B3259
:103A30000F491548FDF7F6FC94F8340000F0070034
:103A4000022802D04FF0FF3070BDFCF70DFC054698
:103A500004F11400FEF700F904F1440000F066FBE5
:103A60002046FFF7D1FA2846FCF702FC002070BD83
:103A70007F49000874687265616420213D205254BA
:103A80005F4E554C4C000000E44B000801480068B4
:103A900070470000F4000020F1B5184804682CB904
:103AA00040F24122164917A0FDF7BCFC2046FFF763
:103AB000C7F9012805D040F2422211491648FDF706
:103AC000B1FCFCF7D1FB064600252046256300F03B
:103AD00081F804F144006A460021074600F062F9CB
:103AE000384600F0A5FA3046FCF7C2FBFFF730FA83
:103AF000206B801C00D12563206BF8BDF4000020F2
:103B00003549000874687265616420213D20525473
:103B10005F4E554C4C000000E44B000810B504000B
:103B200005D14FF4B372154915A0FDF77BFC94F84D
:103B30003400400705D040F26712104915A0FDF788
:103B400071FC2046FFF77CF9012805D04FF4B472D0
:103B50000A491E48FDF766FC94F83510012088409C
:103B6000A063022084F834002046FFF751FF184874
:103B7000006808B1FFF7ECF9002010BD014900080A
:103B800074687265616420213D2052545F4E554C2B
:103B90004C000000287468726561642D3E73746186
:103BA0007420262052545F5448524541445F535478
:103BB00041545F4D41534B29203D3D2052545F54A9
:103BC00048524541445F494E49540000E44B0008C7
:103BD000F400002070B5040005D140F24E321D49BA
:103BE0001DA0FDF71FFC2046FFF72AF9012805D08C
:103BF00040F24F3217491D48FDF714FC1C4800687D
:103C0000844205D04FF4547212491AA0FDF70AFC01
:103C100094F8340000F00700012804D0032802D0F3
:103C20004FF0FF3070BDFCF71FFB05462046FFF745
:103C300039FA94F8340020F00700801C84F834002E
:103C400004F1440000F072FA2846FCF711FB002052
:103C500070BD00006D4900087468726561642021C0
:103C60003D2052545F4E554C4C000000E44B000880
:103C7000F4000020746872656164203D3D20727418
:103C80005F7468726561645F73656C662829000003
:103C9000002802DA4FF0FF3070474FF47A7190FB42
:103CA000F1F290FBF1F301FB130000EB40034A43F8
:103CB000C3EBC0104B1E03EBC00090FBF1F01044AF
:103CC0007047000001480068704700002400002091
:103CD00010B5FCF7C9FA04460E480168491C01609A
:103CE000FFF7D4FE016C491E016406D02046FCF7A4
:103CF000BFFABDE8104000F00FB8C16B016410F8C6
:103D0000341F41F0080101702046FCF7B1FAFFF7BB
:103D10001FF9EEE7240000202DE9FC41CDF804D086
:103D2000CDF800D0FFF7CEFF0646FCF79DFA074618
:103D30001B4D2DE060696FF00041301A143C884241
:103D400029D22046FDF752FA607A810702D420F08A
:103D50000100607204F1140188466846FDF765FFB2
:103D6000D4E907108847FFF7ADFF0646009869467B
:103D700088420DD04046FDF778FF607A810707D56D
:103D8000C10705D020F001006072204600F050F914
:103D90002C68AC42CED13846FCF76AFABDE8FC810B
:103DA000000100202DE9F04115460E46040005D122
:103DB00040F23E221F4920A0FDF734FB2046FFF7CA
:103DC0003FF80A2805D040F23F221A491FA0FDF70C
:103DD00029FBFCF749FA0746062E22D2DFE806F057
:103DE000050313171C27606A1AE028686FF000416A
:103DF000884205D340F249220E4923A0FDF712FB69
:103E0000286860620DE0607A20F0020002E0607ACB
:103E100040F00200607204E0607AC00700D0012028
:103E200028603846FCF724FA0020BDE8F081A06A3B
:103E3000F6E70000EB49000874696D657220213DCA
:103E40002052545F4E554C4C0000000072745F6F5E
:103E5000626A6563745F6765745F7479706528264C
:103E600074696D65722D3E706172656E7429203DB6
:103E70003D2052545F4F626A6563745F436C6173A7
:103E8000735F54696D657200282A2872745F7469C3
:103E9000636B5F74202A2961726729203C20525489
:103EA0005F5449434B5F4D4158202F2032000000A2
:103EB00070B5040005D140F22712154915A0FDF791
:103EC000B1FA2046FEF7BCFF0A2805D04FF49472E1
:103ED0000F4915A0FDF7A6FA2046FFF71DF828B9EF
:103EE00040F229120A491FA0FDF79CFAFCF7BCF921
:103EF00005462046FDF77AF9607A20F001006072ED
:103F00002846FCF7B5F92046FEF716FF002070BDE5
:103F10009E49000874696D657220213D2052545FEE
:103F20004E554C4C0000000072745F6F626A65630E
:103F3000745F6765745F74797065282674696D6550
:103F4000722D3E706172656E7429203D3D20525481
:103F50005F4F626A6563745F436C6173735F54693A
:103F60006D65720072745F6F626A6563745F697316
:103F70005F73797374656D6F626A65637428267404
:103F8000696D65722D3E706172656E742900000066
:103F90002DE9F8439946DDE908571446884606009E
:103FA00005D14FF48872114911A0FDF73BFA2CB9E5
:103FB00040F211120D4913A0FDF734FA6FF00040E2
:103FC000854205D34FF48972084913A0FDF72AFAF8
:103FD00042460A213046FEF74DFF2B464A4621460F
:103FE00030460097FDF7F4F8BDE8F88390490008E3
:103FF00074696D657220213D2052545F4E554C4CC2
:104000000000000074696D656F757420213D2052B9
:10401000545F4E554C4C000074696D65203C205235
:10402000545F5449434B5F4D4158202F20320000CC
:104030002DE9F843040005D14FF4D172254926A09B
:10404000FDF7F0F92046FEF7FBFE0A2805D040F206
:10405000A312204925A0FDF7E5F9FCF705F98046F4
:104060002046FDF7C3F8607A20F001006072FFF788
:1040700029FE616A2C4A4318A3620020009202EBD9
:10408000C002694656686FF000475DF820200AE0DC
:104090001268A2EBC0056D699D4202D0ED1ABD42C7
:1040A00003D341F82020B242F2D11F48001F01681B
:1040B000491C016004F114010098FDF7B6FD607A17
:1040C00040F0010060724046FCF7D2F80020BDE8E5
:1040D000F8830000CE49000874696D657220213DA7
:1040E0002052545F4E554C4C0000000072745F6FBC
:1040F000626A6563745F6765745F747970652826AA
:1041000074696D65722D3E706172656E7429203D13
:104110003D2052545F4F626A6563745F436C617304
:10412000735F54696D6572000001002070B5040072
:1041300005D140F21A22124912A0FDF773F9204668
:10414000FEF77EFE0A2805D040F21B220C4912A081
:10415000FDF768F9607AC0070ED0FCF785F80546D0
:104160002046FDF743F8607A20F00100607228468F
:10417000FCF77EF8002070BD4FF0FF3070BD0000EE
:10418000DD49000874696D657220213D2052545F3D
:104190004E554C4C0000000072745F6F626A65639C
:1041A000745F6765745F74797065282674696D65DE
:1041B000722D3E706172656E7429203D3D2052540F
:1041C0005F4F626A6563745F436C6173735F5469C8
:1041D0006D6572002DE9FF4F8946044600EB090723
:1041E00083B080464FF0FF3A4FF0200BA74202D237
:1041F0005746C8F1FF390BE1252803D0BC4200D255
:10420000207080E000260599491C059108782D282A
:1042100011D02B2812D0202813D0232814D03028D6
:1042200015D00A785546303A0A2A13D205A800F06C
:1042300038F905461AE046F01006E4E746F00406B1
:10424000E1E746F00806DEE746F02006DBE746F049
:104250000106D8E72A2809D10698491C059120C8EB
:104260000690002D02DA6D4246F010060598D446FD
:1042700001782E2918D1401C05900178A1F1300257
:104280000A2A04D205A800F00CF9844607E02A297E
:1042900008D1401C0590069850F804CB0690BCF15C
:1042A000000F01DA4FF0000C059A00201178682900
:1042B00001D06C2902D1521C0846059211780A23BC
:1042C0006F2974D00CDC63291FD004DC25296FD042
:1042D00058290DD184E0642901D0692908D183E0EF
:1042E000702966D073292CD075297FD0782979D090
:1042F000BC4201D2252020700598641C0178E9B3E6
:10430000BC4200D22170641C7FE0F00608D45846FD
:104310006D1E002D04DDBC4200D22070641CF7E746
:104320000698BC4210F8041B069000D22170584633
:1043300002E0BC4200D22070641C6D1E002DF8DC2F
:1043400063E0069802C8069001B941A1002000E090
:10435000401CA84202D00A5C002AF9D1BCF1000F2F
:1043600002DD604500DD6046F2060BD45A462B465E
:104370006D1E834206DDBC4202D200E054E0227092
:10438000641CF4E7002206E0BC4201D20B782370E3
:10439000491C521C641C8242F6DB5A4629466D1E9B
:1043A000814232DDBC4200D22270641CF6E715E087
:1043B00010E0681C02D1082546F00106CDE9005C3A
:1043C00006980296102304C806903946204619E044
:1043D0000CE007E0BC4296D2252011E7082305E057
:1043E00046F04006102301E046F002066C2801D09A
:1043F00068281CD0069804C80690CDE9005C3946B0
:1044000020460296FCF74EFF04460598401C059096
:104410000598007800287FF4EFAEB9F1000F11D0B5
:10442000BC420DD220700DE0401E0590EDE70698CD
:1044300030F8041B06908AB2B007DED512B2DCE772
:1044400007F8010C07B0A4EB0800BDE8F08F0000EE
:10445000284E554C4C290000134610B50A464FF023
:10446000FF31FFF7B7FE10BD0020704700207047F6
:10447000002070470020704710B5FBF7F5FEFDF7F0
:1044800025FAFEF7D1FFFFF7C3F8FFF799F8FCF71D
:10449000A1FFFFF7C3F8FFF74FFAFFF7A5F80020D9
:1044A00010BD10B5014600206FF02F0307E0541C2B
:1044B0000C60127800EB800003EB400010440A68A7
:1044C0001478303C0A2CF2D310BD00000B4810B514
:1044D000094901604FF4E1314160002181600C2203
:1044E000C160C0E904128161C161FCF7A9FA00282A
:1044F00000D0FEE710BD000000100140C8400020C1
:104500004FF04070E1EE100A70470000000000001C
:10451000010C0008C50B00080000000000000000AE
:10452000E10B0008000000000102030472745F61E7
:1045300070706C69636174696F6E5F696E69740035
:104540005F6970635F6C6973745F73757370656EB8
:10455000640072745F73656D5F696E697400727474
:104560005F73656D5F6465746163680072745F7327
:10457000656D5F6372656174650072745F73656D0C
:104580005F64656C6574650072745F73656D5F74FC
:10459000616B650072745F73656D5F72656C6561F8
:1045A00073650072745F73656D5F636F6E74726FB5
:1045B0006C0072745F6D757465785F696E69740004
:1045C00072745F6D757465785F64657461636800AB
:1045D00072745F6D757465785F6372656174650090
:1045E00072745F6D757465785F64656C6574650081
:1045F00072745F6D757465785F74616B6500727459
:104600005F6D757465785F72656C65617365007266
:10461000745F6D757465785F636F6E74726F6C0034
:1046200072745F6D715F696E69740072745F6D7131
:104630005F6465746163680072745F6D715F63725B
:10464000656174650072745F6D715F64656C65743B
:10465000650072745F6D715F73656E645F77616929
:10466000740072745F6D715F757267656E7400724D
:10467000745F6D715F726563760072745F6D715FF8
:10468000636F6E74726F6C00000001000200010025
:10469000030001000200010004000100020001000B
:1046A00003000100020001000500010002000100FA
:1046B00003000100020001000400010002000100EB
:1046C00003000100020001000600010002000100D9
:1046D00003000100020001000400010002000100CB
:1046E00003000100020001000500010002000100BA
:1046F00003000100020001000400010002000100AB
:104700000300010002000100070001000200010097
:10471000030001000200010004000100020001008A
:104720000300010002000100050001000200010079
:10473000030001000200010004000100020001006A
:104740000300010002000100060001000200010058
:10475000030001000200010004000100020001004A
:104760000300010002000100050001000200010039
:10477000030001000200010004000100020001002A
:104780000300010002000100303132333435363786
:1047900038396162636465660030313233343536EE
:1047A000373839414243444546005F686561705F70
:1047B000756E6C6F636B0072745F73797374656D83
:1047C0005F686561705F696E69740072745F6D65C2
:1047D0006D686561705F696E69740072745F6D65A4
:1047E0006D686561705F6465746163680072745FB1
:1047F0006D656D686561705F616C6C6F630072748C
:104800005F6D656D686561705F7265616C6C6F632B
:104810000072745F6D656D686561705F6672656575
:104820000072745F6F626A6563745F696E697400B9
:1048300072745F6F626A6563745F646574616368F4
:104840000072745F6F626A6563745F616C6C6F6342
:104850006174650072745F6F626A6563745F64653A
:104860006C6574650072745F6F626A6563745F691A
:10487000735F73797374656D6F626A6563740072D8
:10488000745F6F626A6563745F6765745F74797083
:10489000650072745F6F626A6563745F66696E64F7
:1048A0000072745F7363686564756C655F696E73CD
:1048B0006572745F7468726561640072745F7363BB
:1048C000686564756C655F72656D6F76655F746849
:1048D00072656164005F7468726561645F74696DBC
:1048E000656F7574005F7468726561645F696E6995
:1048F000740072745F7468726561645F696E697474
:104900000072745F7468726561645F73746172745D
:1049100075700072745F7468726561645F64657459
:104920006163680072745F7468726561645F646576
:104930006C6574650072745F7468726561645F733E
:104940006C6565700072745F7468726561645F6441
:10495000656C61795F756E74696C0072745F746800
:10496000726561645F636F6E74726F6C0072745F06
:104970007468726561645F73757370656E640072EC
:10498000745F7468726561645F726573756D6500EC
:1049900072745F74696D65725F696E6974007274B8
:1049A0005F74696D65725F646574616368007274D9
:1049B0005F74696D65725F637265617465007274BE
:1049C0005F74696D65725F64656C657465007274AF
:1049D0005F74696D65725F73746172740072745F85
:1049E00074696D65725F73746F700072745F74695F
:1049F0006D65725F636F6E74726F6C0072745F646A
:104A000065766963655F756E7265676973746572F3
:104A10000072745F6465766963655F646573747260
:104A20006F790072745F6465766963655F696E694A
:104A3000740072745F6465766963655F6F70656E3C
:104A40000072745F6465766963655F636C6F73653C
:104A50000072745F6465766963655F7265616400A6
:104A600072745F6465766963655F77726974650007
:104A700072745F6465766963655F636F6E74726F8D
:104A80006C0072745F6465766963655F7365745FFB
:104A900072785F696E6469636174650072745F64E3
:104AA00065766963655F7365745F74785F636F6D66
:104AB000706C65746500000072745F6F626A656394
:104AC000745F6765745F74797065282673656D2DF2
:104AD0003E706172656E742E706172656E7429200D
:104AE0003D3D2052545F4F626A6563745F436C6161
:104AF00073735F53656D6170686F726500000000CD
:104B000072745F6F626A6563745F6765745F7479FE
:104B1000706528266D712D3E706172656E742E7001
:104B20006172656E7429203D3D2052545F4F626A68
:104B30006563745F436C6173735F4D657373616725
:104B4000655175657565000072745F6F626A6563B3
:104B5000745F6765745F7479706528266D75746518
:104B6000782D3E706172656E742E706172656E7420
:104B700029203D3D2052545F4F626A6563745F4354
:104B80006C6173735F4D7574657800004F4B000066
:104B900045494E56414C000045525346554C4C0039
:104BA000454E4F4D454D000045494F004552524F2F
:104BB00052000000454E4F535953000045494E5492
:104BC000525054004554494D4F55540045554E4B95
:104BD0004E4F57004542555359000000455253452A
:104BE0005054590072745F6F626A6563745F6765E1
:104BF000745F74797065282872745F6F626A656388
:104C0000745F742974687265616429203D3D205287
:104C1000545F4F626A6563745F436C6173735F5482
:104C20006872656164000000754400086D44000806
:104C3000CD44000869440008F306000871440008E8
:104C4000604C00080000002018010000C4010008AA
:104C5000784D00081801002058460000E0010008C7
:104C60000000000000000000000000000000000044
:104C70000000000001000000100000000000000023
:104C80000024F4000000000028000020280000207C
:104C90000000000000000000000000000000000014
:104CA0008C4B0008AC4B0008C44B0008984B000824
:104CB000DC4B0008A04B0008B44B0008D44B0008A4
:104CC000A84B0008BC4B0008904B0008CC4B0008D8
:104CD0000100000074000020740000207800000033
:104CE000020000008400002084000020200000005A
:104CF0000300000094000020940000202400000025
:104D000006000000A4000020A40000203C000000D9
:104D100007000000B4000020B4000020680000007C
:104D200009000000C4000020C40000202C00000086
:104D30000A000000D4000020D40000202C00000055
:104D40000C000000E4000020E40000202800000027
:104D50000000000000000000000000000000000053
:104D60000000000000000000000000000000000043
:084D700000000000000000003B
:040000050800018965
:00000001FF
